:10000000E6EF10F00000000000EF00F0000000003C
:0A0010000000000000000000F3D71C
:0E001C0001012BB102D08B9801D08B8812000D
:0E002A0001012BB102D08B9601D08B86120003
:0E00380001012BB102D08D9601D08D861200F1
:0E00460001012BB102D0899401D089841200EF
:0E00540001012BB102D08B9C01D08B8C1200CD
:0E00620001012BB102D08B9401D08B841200CF
:0E00700001012BB102D08B9A01D08B8A1200B5
:0E007E0001012BB102D08B9E01D08B8E12009F
:0E008C0001012BB102D08A9201D08A821200AB
:0E009A0001012BB102D08D9401D08D84120093
:0E00A80001012BB102D08F9201D08F82120085
:0E00B60001012BB102D08F9401D08F84120073
:0E00C40001012BB102D08B9801D08B88120065
:0E00D20001012BB102D08B9601D08B8612005B
:0E00E00001012BB102D08A9401D08A84120053
:0E00EE0001012BB102D08B9801D08B8812003B
:0E00FC0001012BB102D08B9601D08B86120031
:0E010A0001012BB102D08F9001D08F80120026
:0E01180001012BB102D08B9A01D08B8A12000C
:0E01260001012BB102D08B9801D08B88120002
:0E01340001012BB102D08B9601D08B861200F8
:0E01420001012BB102D08B9201D08B821200F2
:0E01500001012BB102D08B9A01D08B8A1200D4
:0E015E0001012BB102D08D9001D08D801200D6
:10016C000F0121B302D00000FBD72BC11CFF1200E2
:0E017C00ACB202D00000FCD72BC1ADFF1200C8
:0E018A0001012BB102D08B9001D08B801200AE
:0E01980001012BB102D0899001D089801200A4
:0E01A60001012BB102D08A9001D08A80120094
:0E01B40001012BB102D08D9201D08D8212007C
:0E01C20001012BB102D0899801D0898812006A
:0E01D00001012BB102D08B9801D08B88120058
:0E01DE0001012BB102D08B9601D08B8612004E
:0E01EC0001012BB102D0899201D0898212004C
:0E01FA0001012BB102D08B9C01D08B8C120026
:0E02080001012BB102D08B9E01D08B8E120013
:0E02160001012BB102D08B9801D08B88120011
:0E02240001012BB102D08B9601D08B86120007
:1002320068B409D01F0E6614016E0150000A03E172
:0A024200010E006E01D0006A1200E8
:10024C00F250026EF29E0500FF6A0150FE6E0050E5
:08025C00FD6E02BEF28E1200DD
:10026400C7B409D01F0EC514016E0150000A03E182
:0A027400010E006E01D0006A1200B6
:0C027E00000E0F0121B3010E006E1200F3
:0A028A00000E82B0010E006E12009B
:10029400AECF01F0ABA202D0AB98AB8801C000F0A6
:0202A400120046
:0A02A600000E82B6010E006E120079
:0A02B000000E84B0010E006E120073
:0A02BA00000E80B0010E006E12006D
:0A02C400000EA4BA010E006E120035
:1002CE00AFC027F1B0C028F1B1C029F1B2C02AF1F8
:1002DE000101256B266B2651120802E125518E086D
:1002EE0008E3A0DF005201E004D00101254B262BCC
:1002FE00F2D70101120E265D02E18F0E255D03E39A
:10030E007B0E006E26D0668066A022D00001AF5113
:10031E00B011B111B2111BE00101275128112911A1
:10032E002A110EE1DEC0E1FFDFC0E2FF050EE66E30
:10033E00DCC000F0DDC001F082DF010E006E09D0DE
:10034E00010E0101275F000E285B295B2A5BDCD7BB
:04035E00006A12001F
:0A036200000E9EBA010E006E12009C
:0A036C00000E81B2010E006E1200B7
:100376001DCF01F00F0122A302D02299228901C0CC
:0403860000F0120071
:0A038A00000EACB2010E006E12006E
:0A039400000E82B4010E006E12008C
:0A039E00000E82B8010E006E12007E
:0A03A800000E84B2010E006E120078
:0A03B200000E80B8010E006E12006C
:0A03BC00000E80B2010E006E120068
:0A03C600000E82BA010E006E120054
:0A03D000000E82B8010E006E12004C
:0A03DA00000E82B6010E006E120044
:0A03E400000E82B8010E006E120038
:0A03EE00000E81B0010E006E120037
:0A03F800000E82B2010E006E12002A
:0A040200000E82BA010E006E120017
:0A040C00000E82B6010E006E120011
:0A041600000E82BC010E006E120001
:0A042000000E82BE010E006E1200F5
:10042A00ABC027F1ACC028F1ADC029F1AEC02AF1AA
:10043A009E96C5869EB620D00001AB51AC11AD1177
:10044A00AE1119E001012751281129112A110CE1D5
:10045A00B9C0E1FFBAC0E2FF030EE66EB7C000F012
:10046A00B8C001F0EEDE08D0010E0101275F000ED0
:10047A00285B295B2A5BDED70101C9CF26F125510A
:10048A00000A02E1C58A01D0C59A9E96C588ABC00A
:10049A0027F1ACC028F1ADC029F1AEC02AF19EB651
:1004AA0020D00001AB51AC11AD11AE1119E0010120
:1004BA002751281129112A110CE1B9C0E1FFBAC04C
:1004CA00E2FF030EE66EB7C000F0B8C001F0B9DE75
:1004DA0008D0010E0101275F000E285B295B2A5B09
:0804EA00DED726C100F012006C
:1004F2009E9625C1C9FFABC026F1ACC027F1ADC0A5
:1005020028F1AEC029F1C7A422D00001AB51AC1131
:10051200AD11AE111BE0010126512711281129113D
:100522000EE1B9C0E1FFBAC0E2FF040EE66EB7C049
:1005320000F0B8C001F089DE010E006E3BD0010E62
:100542000101265F000E275B285B295BDCD7ABC06D
:1005520026F1ACC027F1ADC028F1AEC029F19EB69C
:1005620022D00001AB51AC11AD11AE111BE0010163
:1005720026512711281129110EE1B9C0E1FFBAC095
:10058200E2FF040EE66EB7C000F0B8C001F05DDE17
:10059200010E006E0FD0010E0101265F000E275BD7
:1005A200285B295BDCD7C5BC02D0006A03D0C584B6
:0605B200020E006E1200B3
:1005B800AFC027F1B0C028F1B1C029F1B2C02AF10B
:1005C800A19A6686A1BA20D00001AF51B011B1112D
:1005D800B21119E001012751281129112A110CE142
:1005E800DEC0E1FFDFC0E2FF030EE66EDCC000F014
:1005F800DDC001F027DE08D0010E0101275F000EE3
:10060800285B295B2A5BDED701016ACF26F12551D9
:10061800000A02E1668A01D0669AA19A6688AFC08C
:1006280027F1B0C028F1B1C029F1B2C02AF1A1BAAE
:1006380020D00001AF51B011B111B21119E0010180
:100648002751281129112A110CE1DEC0E1FFDFC072
:10065800E2FF030EE66EDCC000F0DDC001F0F2DD63
:1006680008D0010E0101275F000E285B295B2A5B79
:08067800DED726C100F01200DC
:0A068000000E86B2010E006E12009B
:0A068A00000E82B6010E006E120091
:0A069400000E82B8010E006E120085
:10069E00AFC025F1B0C026F1B1C027F1B2C028F12C
:1006AE00668266A220D00001AF51B011B111B21115
:1006BE0019E0010125512611271128110CE1DEC088
:1006CE00E1FFDFC0E2FF060EE66EDCC000F0DDC02B
:1006DE0001F0B5DD08D0010E0101255F000E265B8D
:0806EE00275B285BDED7120038
:0406F6006684120004
:1006FA00ABC027F1ACC028F1ADC029F1AEC02AF1D8
:10070A000101256B266B2651120802E125518E083C
:10071A0008E3A3DD005201E004D00101254B262B9A
:10072A00F2D70101120E265D02E18F0E255D03E369
:10073A007B0E006E26D0C580C5A022D00001AB5129
:10074A00AC11AD11AE111BE001012751281129117D
:10075A002A110EE1B9C0E1FFBAC0E2FF050EE66E4A
:10076A00B7C000F0B8C001F06CDD010E006E09D010
:10077A00010E0101275F000E285B295B2A5BDCD78B
:04078A00006A1200EF
:10078E00A19A25C16AFFAFC026F1B0C027F1B1C052
:10079E0028F1B2C029F168A422D00001AF51B011E6
:1007AE00B111B2111BE00101265127112811291197
:1007BE000EE1DEC0E1FFDFC0E2FF040EE66EDCC03C
:1007CE0000F0DDC001F03BDD010E006E3BD0010EEE
:1007DE000101265F000E275B285B295BDCD7AFC0CB
:1007EE0026F1B0C027F1B1C028F1B2C029F1A1BAEB
:1007FE0022D00001AF51B011B111B2111BE00101B5
:10080E0026512711281129110EE1DEC0E1FFDFC0AC
:10081E00E2FF040EE66EDCC000F0DDC001F00FDD7D
:10082E00010E006E0FD0010E0101265F000E275B38
:10083E00285B295BDCD766BC02D0006A03D06684D5
:06084E00020E006E120014
:10085400ABC025F1ACC026F1ADC027F1AEC028F184
:10086400C582C5A220D00001AB51AC11AD11AE11AF
:1008740019E0010125512611271128110CE1B9C0F5
:10088400E1FFBAC0E2FF060EE66EB7C000F0B8C0E2
:1008940001F0DADC08D0010E0101255F000E265BB1
:0808A400275B285BDED7120080
:0408AC00C5841200ED
:0A08B000000E86B4010E006E120067
:0A08BA00000E82B8010E006E12005D
:0A08C400000E80B4010E006E120059
:0A08CE00000E84B6010E006E120049
:0A08D800000E82BE010E006E120039
:0A08E200000E82BC010E006E120031
:0A08EC00000E82B6010E006E12002D
:0A08F600000E82BA010E006E12001F
:0A090000000E86B0010E006E12001A
:0A090A00000E81B4010E006E120011
:0A091400000E84B4010E006E120004
:0A091E00000E82B6010E006E1200FA
:0A092800000E82B8010E006E1200EE
:10093200640E0001C46F020EC56F000EC66F000E7A
:10094200C76FFA0EE06F060EE16F000EE26F000E47
:10095200E36F540ED86F080ED96F000EDA6F000ED7
:10096200DB6F2A0EC86F040EC96F250ECA6F010E07
:10097200CB6FF20ED46F040ED56F250ED66F010E1B
:10098200D76FAC0ED06F080ED16F000ED26F000E73
:10099200D36F949894968B988B9694889486C79EDE
:0809A200C79C380EC66E12005E
:1009AA00086A096A100E0C6E0134083609360450BA
:1009BA00085E0550D8A0053C095ED8B007D004509F
:1009CA0008260550D8B0053C0926D89000360136CD
:0609DA000C2EEAD712000A
:1009E0007C0E0001BB6F010EBC6F2B0EBD6F010EA4
:1009F000BE6F940EBF6F020EC06F000EC16F000E6F
:100A0000C26F620E0101056F030E066F000E076FC5
:100A1000000E086F8A0E016F030E026F000E036F47
:100A2000000E046FAC8A900EAB6E948E949C9EAABE
:0A0A300003D0AECF00F0FBD7120098
:100A3A006C0E0001BB6F010EBC6F2B0EBD6F010E59
:100A4A00BE6F760EBF6F030EC06F000EC16F000E31
:100A5A00C26FC40E0101056F020E066F000E076F0A
:100A6A00000E086F7E0E016F020E026F000E036FFA
:100A7A00000E046F0F01218B900E226F98849892BA
:0C0A8A00A4AA03D01DCF00F0FBD712007F
:100A960001011B6B1C6BECC000F0EDC001F026ECF5
:100AA60001F000C01BF1000E01011C6F1BC100F01C
:060AB6001CC101F012005A
:100ABC000101236B246B1CC121F11DC122F11BC14F
:100ACC0000F000360090FAC0E1FFFBC0E2FF00C06E
:100ADC00E6FFF8C000F0F9C001F026EC01F0005080
:100AEC0001012313000E24131EC100F01FC101F0DD
:100AFC00010E1E5F000E1F5B0050011018E0FAC0C3
:100B0C00E1FFFBC0E2FF21C1E9FF22C1EAFFEECF0A
:100B1C00E6FFF8C000F0F9C001F026EC01F000503F
:100B2C0001012313000E2413214B222BDDD720515E
:100B3C00000A06E1E4C000F0E5C001F026EC01F08B
:100B4C0001012051010A06E1E8C000F0E9C001F002
:0E0B5C0026EC01F023C100F024C101F01200CC
:100B6A000101236B246B1CC121F11DC122F11BC1A0
:100B7A0000F0003600900080FAC0E1FFFBC0E2FFFF
:100B8A0000C0E6FFF8C000F0F9C001F026EC01F061
:100B9A00005001012313000E2413010E1E5F000EE4
:100BAA001F5B1E511F1116E0FEC0E1FFFFC0E2FFEE
:100BBA00010EE66EFCC000F0FDC001F026EC01F06B
:100BCA0021C1E1FF22C1E2FF00C0E6FF0101214B82
:100BDA00222BE3D7FEC0E1FFFFC0E2FFE66AFCC0BA
:100BEA0000F0FDC001F026EC01F021C1E1FF22C1B5
:100BFA00E2FF00C0E6FF01012051000A06E1E4C05D
:100C0A0000F0E5C001F026EC01F001012051010AD3
:100C1A0006E1E8C000F0E9C001F026EC01F023C1CA
:080C2A0000F024C101F01200EA
:100C320038D00F0120870D0E1F6F040E1E6F218505
:100C4200FBDE7ED00F012087060E1F6F820E1E6F05
:100C52002185F2DE75D00F012087030E1F6F400E33
:100C62001E6F2185E9DE6CD00F012087010E1F6FF8
:100C7200A00E1E6F2185E0DE63D00F012087010EDA
:100C82001F6F150E1E6F2185D7DE5AD00F012087E8
:100C92001F6B8A0E1E6F2185CFDE52D0060E006EAC
:100CA20059D0000E006E0101171908E10050161903
:100CB20005E1120E151902E11451C00ABAE0000E44
:100CC200006E171908E10050161905E1250E1519D5
:100CD20002E11451800AB6E0000E006E171908E115
:100CE2000050161905E14B0E151902E11451000AC4
:100CF200B2E0000E006E171908E10050161905E166
:100D0200960E151902E11451000AAEE0000E006EB3
:100D1200171908E10050161905E1E10E151902E153
:100D22001451000AAAE01751000A08E11651010AFB
:100D320005E11551C20A02E11451000AA7E0AED73B
:100D42006C0E0001CC6F010ECD6F2B0ECE6F010E1B
:060D5200CF6F006A1200E1
:100D580014C1F6FF15C1F7FF16C1F8FF0900F5CF5A
:100D6800ECF00900F5CFEDF00900F5CFEEF0090041
:100D7800F5CFEFF0040E01011425F66E000E1521D3
:100D8800F76E000E1621F86E0900F5CFE4F00900A1
:100D9800F5CFE5F00900F5CFE6F00900F5CFE7F06B
:100DA800080E1425F66E000E1521F76E000E16219A
:100DB800F86E0900F5CFE8F00900F5CFE9F0090071
:100DC800F5CFEAF00900F5CFEBF00C0E1425F66E1E
:100DD800000E1521F76E000E1621F86E0900F5CFEA
:100DE800F8F00900F5CFF9F00900F5CFFAF009009D
:100DF800F5CFFBF0100E1425F66E000E1521F76ED8
:100E0800000E1621F86E0900F5CFFCF00900F5CFA9
:100E1800FDF00900F5CFFEF00900F5CFFFF0120054
:100E280021D0CF0EAF6EAC94D7DD6BD0670EAF6E0E
:100E3800AC94D2DD66D0CF0EAF6EAC84CDDD61D080
:100E4800670EAF6EAC84C8DD5CD0440EAF6EAC8468
:100E5800C3DD57D0220EAF6EAC84BEDD52D0060E75
:100E6800006E59D00101000E006E171908E10050FC
:100E7800161905E1120E151902E11451C00AD1E044
:100E8800000E006E171908E10050161905E1250E2D
:100E9800151902E11451800AC9E0000E006E1719F5
:100EA80008E10050161905E14B0E151902E114511D
:100EB800000AC1E0000E006E171908E1005016196B
:100EC80005E1960E151902E11451000AB9E0000E69
:100ED800006E171908E10050161905E1E10E151901
:100EE80002E11451000AB1E01751000A08E1165155
:100EF800010A05E11551C20A02E11451000AAAE0EB
:100F0800AED77C0E0001CC6F010ECD6F2B0ECE6FCD
:080F1800010ECF6F006A120008
:100F2000CEC0E1FFCFC0E2FF14C1E9FF15C1EAFF67
:100F3000EECFE6FFCCC000F0CDC001F026EC01F012
:040F4000006A120031
:100F44005DD0010115B102D0929401D092840F01B9
:100F540025957AD0010115B102D0969601D09686D6
:100F640073D0010115B102D0969401D096846CD04F
:100F7400010115B102D0949601D0948665D0010187
:100F840015B102D0949801D094885ED0010115B1B6
:100F940002D0949A01D0948A57D0010115B102D09D
:100FA400989001D0988050D0010115B102D093944B
:100FB40001D0938449D0010115B102D0989401D095
:100FC40098840F01239540D0010115B102D0989265
:100FD40001D098820F01239337D0010115B102D0BB
:100FE400949601D0948630D0010115B102D0949822
:100FF40001D0948829D0010E006E28D0010114512B
:10100400000A9FE01451010AA5E01451020AA9E064
:101014001451030AADE01451040AB1E01451050A55
:10102400B5E01451060AB9E01451070ABDE01451A1
:10103400080AC1E01451090AC7E014510A0ACDE0B4
:0E10440014510B0AD1E0D7D7000E006E120037
:1010520014C117F115C118F116C119F10BD0A00E68
:10106200C86E66DC44D0280EC86E62DC40D0040E26
:10107200006E3FD017C1F6FF18C1F7FF19C1F8FF84
:101082000900F5CF01F00900F5CF02F00900F5CF14
:1010920003F00900F5CF04F00450000A08E1035000
:1010A200010A05E10250860A02E10150A00AD7E0D6
:1010B20017C1F6FF18C1F7FF19C1F8FF0900F5CFF4
:1010C20001F00900F5CF02F00900F5CF03F00900A5
:1010D200F5CF04F00450000A08E10350060A05E1C6
:1010E20002501A0A02E10150800ABDE0C0D7000E88
:0410F200006E12007A
:1010F60059D0010115B102D0929001D092800F0112
:10110600259176D0010115B102D0949001D094803A
:101116006FD0010115B102D0969001D0968068D0AB
:10112600010115B102D0949601D0948661D00101D7
:1011360015B102D0949801D094885AD0010115B106
:1011460002D0949A01D0948A53D0010115B102D0ED
:10115600949201D094824CD0010115B102D09390A3
:1011660001D0938045D0010115B102D0949E01D0E3
:10117600948E3ED0010115B102D0949C01D0948C7E
:1011860037D0010115B102D0949601D0948630D0A3
:10119600010115B102D0949801D0948829D0010E8E
:1011A600006E28D001011451000AA3E01451010A6F
:1011B600A9E01451020AADE01451030AB1E014513A
:1011C600040AB5E01451050AB9E01451060ABDE057
:1011D6001451070AC1E01451080AC5E01451090A5E
:1011E600C9E014510A0ACDE014510B0AD1E0D7D751
:0611F600000E006E120065
:1011FC0059D0010115B102D0929201D092820F0107
:10120C00259376D0010115B102D0929801D0928825
:10121C006FD0010115B102D0969201D0968268D0A0
:10122C00010115B102D0949601D0948661D00101D0
:10123C0015B102D0949801D094885AD0010115B1FF
:10124C0002D0949A01D0948A53D0010115B102D0E6
:10125C00949401D094844CD0010115B102D0939296
:10126C0001D0938245D0010115B102D0949E01D0DA
:10127C00948E3ED0010115B102D0949C01D0948C77
:10128C0037D0010115B102D0949601D0948630D09C
:10129C00010115B102D0949801D0948829D0010E87
:1012AC00006E28D001011451000AA3E01451010A68
:1012BC00A9E01451020AADE01451030AB1E0145133
:1012CC00040AB5E01451050AB9E01451060ABDE050
:1012DC001451070AC1E01451080AC5E01451090A57
:1012EC00C9E014510A0ACDE014510B0AD1E0D7D74A
:0612FC00000E006E12005E
:1013020027D0CF0EAF6EAC94F0EC04F070D0670E25
:10131200AF6EAC94F0EC04F06AD0CF0EAF6EAC843A
:10132200F0EC04F064D0670EAF6EAC84F0EC04F025
:101332005ED0440EAF6EAC84F0EC04F058D0220EB6
:10134200AF6EAC84F0EC04F052D0060E006E59D0B1
:101352000101000E006E171908E10050161905E18F
:10136200120E151902E11451C00ACBE0000E006EF4
:10137200171908E10050161905E1250E151902E1A9
:101382001451800AC4E0000E006E171908E10050E3
:10139200161905E14B0E151902E11451000ABDE0C0
:1013A200000E006E171908E10050161905E1960E9D
:1013B200151902E11451000AB6E0000E006E171969
:1013C20008E10050161905E1E10E151902E1145168
:1013D200000AAFE01751000A08E11651010A05E1BF
:1013E2001551C20A02E11451000AA9E0AED77C0EDF
:1013F2000001CC6F010ECD6F2B0ECE6F010ECF6FA1
:04140200006A12006A
:1014060027D0CF0EAF6EAC94F0EC04F070D0670E20
:10141600AF6EAC94F0EC04F06AD0CF0EAF6EAC8435
:10142600F0EC04F064D0670EAF6EAC84F0EC04F020
:101436005ED0440EAF6EAC84F0EC04F058D0220EB1
:10144600AF6EAC84F0EC04F052D0060E006E59D0AC
:101456000101000E006E171908E10050161905E18A
:10146600120E151902E11451C00ACBE0000E006EEF
:10147600171908E10050161905E1250E151902E1A4
:101486001451800AC4E0000E006E171908E10050DE
:10149600161905E14B0E151902E11451000ABDE0BB
:1014A600000E006E171908E10050161905E1960E98
:1014B600151902E11451000AB6E0000E006E171964
:1014C60008E10050161905E1E10E151902E1145163
:1014D600000AAFE01751000A08E11651010A05E1BA
:1014E6001551C20A02E11451000AA9E0AED77C0EDA
:1014F6000001CC6F010ECD6F2B0ECE6F010ECF6F9C
:04150600006A120065
:10150A0014C117F115C118F116C119F10DD0A00EA9
:10151A00C86E99EC04F045D0280EC86E99EC04F018
:10152A0040D0040E006E3FD017C1F6FF18C1F7FF76
:10153A0019C1F8FF0900F5CF01F00900F5CF02F053
:10154A000900F5CF03F00900F5CF04F00450000AB2
:10155A0008E10350010A05E10250860A02E101503E
:10156A00A00AD5E017C1F6FF18C1F7FF19C1F8FFA5
:10157A000900F5CF01F00900F5CF02F00900F5CF17
:10158A0003F00900F5CF04F00450000A08E1035003
:10159A00060A05E102501A0A02E10150800ABCE07B
:0815AA00C0D7000E006E120014
:1015B20014C117F115C118F116C119F10DD0A00E01
:1015C200C86E99EC04F045D0280EC86E99EC04F070
:1015D20040D0040E006E3FD017C1F6FF18C1F7FFCE
:1015E20019C1F8FF0900F5CF01F00900F5CF02F0AB
:1015F2000900F5CF03F00900F5CF04F00450000A0A
:1016020008E10350010A05E10250860A02E1015095
:10161200A00AD5E017C1F6FF18C1F7FF19C1F8FFFC
:101622000900F5CF01F00900F5CF02F00900F5CF6E
:1016320003F00900F5CF04F00450000A08E103505A
:10164200060A05E102501A0A02E10150800ABCE0D2
:08165200C0D7000E006E12006B
:10165A000B6A0A6A096A086A0E6A03340836045071
:10166A00085E0550D8A0053C095E0650D8A0063C85
:10167A000A5E0750D8A0073C0B5EE86AD8A0010EA4
:10168A000E5E0336070E0C6E0334083609360A3628
:10169A000B360E36045003A012D0085E0550D8A0AF
:1016AA00053C095E0650D8A0063C0A5E0750D8A041
:1016BA00073C0B5EE86AD8A0010E0E5E11D0082620
:1016CA000550D8B0053C09260650D8B0063C0A2673
:1016DA000750D8B0073C0B26E86AD8B0010E0E2690
:1016EA0003360C2ED1D70234083609360A360B36A1
:1016FA000E36045003A012D0085E0550D8A0053C4F
:10170A00095E0650D8A0063C0A5E0750D8A0073CDE
:10171A000B5EE86AD8A0010E0E5E11D008260550AD
:10172A00D8B0053C09260650D8B0063C0A26075010
:10173A00D8B0073C0B26E86AD8B0010E0E2602364E
:10174A00070E0C6E0234083609360A360B360E3688
:10175A00045002A012D0085E0550D8A0053C095ECC
:10176A000650D8A0063C0A5E0750D8A0073C0B5E7C
:10177A00E86AD8A0010E0E5E11D008260550D8B02E
:10178A00053C09260650D8B0063C0A260750D8B0B0
:10179A00073C0B26E86AD8B0010E0E2602360C2E3C
:1017AA00D1D70134083609360A360B360E360450BC
:1017BA0002A012D0085E0550D8A0053C095E06506A
:1017CA00D8A0063C0A5E0750D8A0073C0B5EE86A20
:1017DA00D8A0010E0E5E11D008260550D8B0053CDF
:1017EA0009260650D8B0063C0A260750D8B0073C4E
:1017FA000B26E86AD8B0010E0E260136070E0C6ECB
:10180A000134083609360A360B360E36045001A062
:10181A0012D0085E0550D8A0053C095E0650D8A033
:10182A00063C0A5E0750D8A0073C0B5EE86AD8A0BF
:10183A00010E0E5E11D008260550D8B0053C0926C7
:10184A000650D8B0063C0A260750D8B0073C0B26EB
:10185A00E86AD8B0010E0E2601360C2ED1D7003414
:10186A00083609360A360B360E36045001A012D055
:10187A00085E0550D8A0053C095E0650D8A0063C73
:10188A000A5E0750D8A0073C0B5EE86AD8A0010E92
:10189A000E5E11D008260550D8B0053C0926065020
:1018AA00D8B0063C0A260750D8B0073C0B26E86A8F
:1018BA00D8B0010E0E260036070E0C6E003408361C
:1018CA0009360A360B360E36045000A012D0085ECE
:1018DA000550D8A0053C095E0650D8A0063C0A5E11
:1018EA000750D8A0073C0B5EE86AD8A0010E0E5E2E
:1018FA0011D008260550D8B0053C09260650D8B0A4
:10190A00063C0A260750D8B0073C0B26E86AD8B02E
:10191A00010E0E2600360C2ED1D700B00ED0045080
:10192A0008260550D8B0053C09260650D8B0063C12
:0C193A000A260750D8B0073C0B2612000C
:101946000101186B050E185D0AE218511625E16EA5
:10195600000E1721E26E200EE66E182BF3D71851F3
:101966001625E16E000E1721E26EE66A1807185179
:101976001625196F000E17211A6F0A0E046E000E37
:10198600056E14C100F015C101F0D5EC04F008C0D5
:1019960000F009C001F0300E002619C1E1FF1AC19E
:1019A600E2FF00C0E6FF0A0E046E000E056E14C1CB
:1019B60000F015C101F0D5EC04F000C014F101C02F
:1019C60015F1000E011802E1000E001801E102D027
:0619D6001807CDD7120036
:1019DC000B6A0A6A096A00500402F4CF09F0F3CFCB
:1019EC0008F001500502F4CF0BF0F3CF0AF00050D1
:1019FC000502F3500926F4500A22E86A0B22015022
:101A0C000402F3500926F4500A22E86A0B2208C09B
:101A1C0000F009C001F00AC002F00BC003F0120084
:101A2C00D00E0C6EC90E0D6E0D2EFED70C2EFCD7E3
:061A3C0000000000120092
:101A4200150E0C6EC60E0D6E0D2EFED70C2EFCD78B
:041A5200000012007E
:101A560014C117F116C100F0016AFF0E001401014E
:101A6600186FFF0E1515196F4BEC05F000C11BF131
:101A7600170E1C6F010E1D6F030E1E6F000E1F6FDB
:081A8600206B5EEC05F012007C
:101A8E000101166B176B186B196B14C115F14BEC2A
:101A9E0005F000C11BF1150E1C6F010E1D6F010E1E
:101AAE001E6F000E1F6F010E206F5EEC05F000C161
:101ABE001BF1160E01011C6F010E1D6F020E1E6F23
:101ACE00000E1F6F206BB5EC05F016C118F1000E5D
:101ADE000101196F18C101F0006A00C018F101C0B0
:101AEE0019F117510012000E011200C018F101C0B9
:041AFE0019F11200C8
:101B0200300E01011425006E000E1521016E000E2B
:101B12001621026E1C0E0024F66E000E0120F76ED6
:101B2200000E0220F86E0900F5CFF4F00900F5CF9F
:101B3200F5F00900F5CFF6F00900F5CFF7F0040E45
:101B42001425F66E000E1521F76E000E1621F86EA2
:101B52000900F5CFF0F00900F5CFF1F00900F5CF5B
:0A1B6200F2F00900F5CFF3F01200D5
:101B6C0018D00AC114F10BC115F17BEC08F01CD094
:101B7C000AC114F10BC115F1FEEC08F015D00AC125
:101B8C0014F10BC115F1A2EC07F00ED0010E006E92
:101B9C000BD001010951000AE4E00951010AE8E007
:0A1BAC000951020AECE0F2D7120022
:101BB600520E0B6E2B0E0C6E000E0D6E0D2EFED7FA
:0C1BC6000C2EFCD70B2EFAD700001200EA
:101BD20001010A6B0B6B0C6B0D6B096B100E095D2F
:101BE20016E2146B53DF00C00EF101C00FF1FF0EBD
:101BF2000E15006E0F510F0B016E00500A27015097
:101C02000B23000E0C230D2310DF092BE7D7040E44
:101C1200046E0AC100F00BC101F00CC102F00DC14B
:101C220003F0045007E00332023201320032039E15
:0E1C3200FF0FF8D700C0B3F001C0B4F01200ED
:101C40001CD00AC114F10BC115F10CC116F129EC1D
:101C500008F01ED00AC114F10BC115F10CC116F128
:101C600054DC16D00AC114F10BC115F10CC116F1E8
:101C7000A0DC0ED0010E006E0BD001010951000A4C
:101C8000E0E00951010AE6E00951020AEBE0F2D76F
:021C9000120040
:101C92000F0E01010D17000E0E177F0E146FF6DEE8
:101CA20000C00FF101C010F10150300A02E1540EE0
:101CB200001809E01051300A02E1550E0F1903E035
:101CC200B5C000F049D01C0E146F09C115F10AC14C
:101CD20016F1C0DE100E0101146F640E156F000EB6
:101CE200166FB8DE080E0101146F0F0E156F010E8C
:101CF200166FB0DE0C0E0101146F0BC115F10CC191
:101D020016F1A8DE140E0101146F010E0D11156FEC
:101D12000E512009166F9EDE1E0E0101146F000E79
:101D2200156F7C0E166F96DE190E0101146FFF0EF1
:101D3200156FFF0E166F8EDE1A0E0101146F156BF2
:101D4200166B88DE1B0E0101146F070E156F000E55
:0A1D5200166F80DEB6C000F012002C
:101D5C0009C10CF10AC10DF10D0E01010E6F0A0E35
:101D6C000F6F3AD00CC114F10DC115F190EC07F0C6
:101D7C003ED00CC1E9FF0DC1EAFFEE520AE00CC1E6
:101D8C0014F10DC115F190EC07F001010C4B0D2B6A
:101D9C00F0D72DD00CC1E9FF0DC1EAFFEE520AE0DD
:101DAC000CC114F10DC115F190EC07F001010C4BB5
:101DBC000D2BF0D701010E0E146F010E156F90EC68
:101DCC0007F00F0E0101146F010E156F90EC07F068
:101DDC000ED0060E006E0CD001010B51000AC2E0B1
:101DEC000B51010AC6E00B51020AD4E0F2D7006A8B
:021DFC001200D3
:101DFE001C0E0101146F000E156F800E166F24DE7F
:021E0E001200C0
:101E10000FC100F10CC114F10DC115F10EC116F185
:101E2000ACEC06F009C114F10AC115F10BC116F1B1
:101E300068DEF2C0E1FFF3C0E2FFE66AF0C000F046
:0A1E4000F1C001F026EC01F01200E1
:101E4A0001010F6B106B09C111F10AC112F1800E69
:101E5A000A19006E800E005C02E1000E095D0BE2B9
:101E6A00010E0F6F000E106F09510008116F0AC1A1
:101E7A0012F1000E125711C114F112C115F10BC162
:101E8A0016F10CC117F15ADD060E0D6F000E0E6F1A
:101E9A00000E006E0E51005C02E10D51000819E2BD
:101EAA000D510B25E16E0E510C21E26E010E0D5DF6
:101EBA00006E000E0E59016E00500B25E96E01509E
:101ECA000C21EA6EEECFE6FF010E0D5F000E0E5BEF
:101EDA00DFD70BC1E1FF0CC1E2FF200EE66E0F5106
:101EEA0010111AE00D6B0E6B0D510B25E96E0E5198
:101EFA000C21EA6EEE50200A03E10D4B0E2BF4D7AB
:101F0A00010E0D5F000E0E5B0D510B25E16E0E5199
:0A1F1A000C21E26E2D0EE66E12009F
:101F240001010A6B0B6B0C6B0D6B096B100E095DD9
:101F340010E2146BAADDFF0E00160F0E01160050FE
:101F44000A2701500B23000E0C230D2378DD092BE7
:101F5400EDD7040E046E0AC100F00BC101F00CC1F0
:101F640002F00DC103F0045007E0033202320132E3
:101F74000032039EFF0FF8D700C00AF101C00BF135
:101F840002C00CF103C00DF100C00EF101C00FF14D
:101F94000F510001B45D04E101010E510001B35D74
:101FA40004E2B3C00EF1B4C00FF101010E510001FF
:101FB400B35D01010E6F0F510001B45901010F6FA0
:101FC4000EC100F00FC101F0640E046E000E056E28
:101FD40003DD00C010F101C011F1000E126F136F88
:101FE400B3C004F0B4C005F0000E066E076E10C155
:101FF40000F011C101F012C102F013C103F02DEC85
:102004000BF000C010F101C011F102C012F103C0C5
:0A20140013F115DD10C100F01200F9
:10201E002FD00AC114F10BC115F10CC116F10DC16F
:10202E0017F181EC09F032D00AC114F10BC115F190
:10203E000CC116F10DC117F103EC0AF027D00AC13D
:10204E0014F10BC115F10CC116F10DC117F119ECFC
:10205E0006F01CD00AC114F10BC115F10CC116F11A
:10206E000DC117F114EC07F011D0010E006E0ED059
:10207E0001010951000ACDE00951010AD5E00951CB
:0E208E00020ADDE00951100AE5E0EFD712006A
:10209C000101096B070E0A6F010E0B6F61DD010167
:1020AC00096B010E0A6F0B6B5BDD0101096BF00E06
:1020BC000A6F220E0B6F000E0C6FBCDD100E0101AF
:1020CC00096F800E0A6F250E0B6F000E0C6F0D6FD3
:1020DC00A0DF510E0101096F000E0A6F020E0B6F8B
:1020EC0037DE090E0B6E1E0E0C6EE40E0D6E0D2EF1
:0E20FC00FED70C2EFCD70B2EFAD700001200D8
:10210A000900F5CFE6FF0006FBE10106F9E112003E
:10211A007C0E0101096F220E0A6F000E0B6FDC0E96
:10212A000C6F220E0D6F000E0E6F2A0E0F6F6BDEF4
:10213A0061DE000E0101096F060E0A6FAA0E0B6F0F
:10214A00000E0C6F0A0E0D6F000E0E6F9DDD350E20
:10215A000101096F000E0A6F020E0B6FFADD34DD02
:10216A0025DD150E096F000E0A6F020E0B6FF1DDE9
:02217A00120051
:10217C00990E0101096F000E0A6F010E0B6FE8DD5D
:10218C00CBDE00C0C3F000C009F1000E0A6F670E71
:10219C000B6F000E0C6F53DE670E096F000E0A6F8B
:1021AC00020E0B6FD5DD290E0B6E960E0C6E7F0E8C
:1021BC000D6E0D2EFED70C2EFCD70B2EFAD712005F
:0E21CC007AEC11F065DFA3DFD3DFFED7FFD77B
:1022F40010EE15F0A20E006E010E016EDA0EF66EEF
:0E230400210EF76E000EF86E85EC10F0120040
:1021DA00202D2D2D2043616C6962726174696F6EC6
:1021EA002066696E697368696E67202D2D2D20003F
:1021FA00202D2D2D2043616C6962726174696F6EA6
:0C220A00207374617274202D2D2D2000B3
:10221600202D2D2D2053797374656D20696E697498
:06222600202D2D2D2000EB
:10222C0000000000000000000000000000000000A2
:10223C000000000000000000000000000000000092
:10224C000000000000000000000000000000000082
:02225C00000080
:10225E00204D6F6973747572652064617461203AE4
:02226E0020004E
:04227000000000006A
:042274000000000066
:022278003C0226
:01227A000162
:01227B000260
:10227C0098012B018A012B015E012B0134012B01EA
:10228C0026012B0150012B0142012B01A6012B0130
:10229C0008022B01FA012B0124022B0116022B013F
:1022AC00BA0200008A020000B0020000A602000080
:1022BC009E03000002040000F8030000EE0300007F
:1022CC0020040000160400000C040000E4030000CD
:1022DC00FA060000AC08000054080000F2042501C6
:0422EC002A0425019A
:0422F000A0860100C3
:020000040030CA
:0E00000015137F7CF98B91FFFFC0FFE0FF40DE
:00000001FF
